{
	"_format": "hh-sol-artifact-1",
	"contractName": "LoanFactory",
	"sourceName": "contracts/ManagerContract.sol",
	"abi": [
		{
			"inputs": [
				{
					"internalType": "address",
					"name": "manager",
					"type": "address"
				}
			],
			"stateMutability": "nonpayable",
			"type": "constructor"
		},
		{
			"anonymous": false,
			"inputs": [],
			"name": "LiquidationEvent",
			"type": "event"
		},
		{
			"anonymous": false,
			"inputs": [
				{
					"indexed": false,
					"internalType": "uint256",
					"name": "",
					"type": "uint256"
				}
			],
			"name": "collateralAmountSet",
			"type": "event"
		},
		{
			"anonymous": false,
			"inputs": [
				{
					"indexed": false,
					"internalType": "uint256",
					"name": "",
					"type": "uint256"
				}
			],
			"name": "setBorrowableScaled",
			"type": "event"
		},
		{
			"anonymous": false,
			"inputs": [
				{
					"indexed": false,
					"internalType": "uint256",
					"name": "",
					"type": "uint256"
				}
			],
			"name": "setCompTokenPrice",
			"type": "event"
		},
		{
			"anonymous": false,
			"inputs": [
				{
					"indexed": false,
					"internalType": "uint256",
					"name": "",
					"type": "uint256"
				}
			],
			"name": "setCompoundCoverted",
			"type": "event"
		},
		{
			"anonymous": false,
			"inputs": [
				{
					"indexed": false,
					"internalType": "address",
					"name": "",
					"type": "address"
				},
				{
					"indexed": false,
					"internalType": "uint256",
					"name": "",
					"type": "uint256"
				}
			],
			"name": "setOverduePayment",
			"type": "event"
		},
		{
			"inputs": [],
			"name": "Owner",
			"outputs": [
				{
					"internalType": "address",
					"name": "",
					"type": "address"
				}
			],
			"stateMutability": "view",
			"type": "function"
		},
		{
			"inputs": [],
			"name": "_ManagerContract",
			"outputs": [
				{
					"internalType": "address",
					"name": "",
					"type": "address"
				}
			],
			"stateMutability": "view",
			"type": "function"
		},
		{
			"inputs": [],
			"name": "_borrowAsset",
			"outputs": [
				{
					"internalType": "address",
					"name": "",
					"type": "address"
				}
			],
			"stateMutability": "view",
			"type": "function"
		},
		{
			"inputs": [],
			"name": "_collateralAsset",
			"outputs": [
				{
					"internalType": "address",
					"name": "",
					"type": "address"
				}
			],
			"stateMutability": "view",
			"type": "function"
		},
		{
			"inputs": [],
			"name": "baseToken",
			"outputs": [
				{
					"internalType": "contract ERC20",
					"name": "",
					"type": "address"
				}
			],
			"stateMutability": "view",
			"type": "function"
		},
		{
			"inputs": [],
			"name": "borrowersLength",
			"outputs": [
				{
					"internalType": "uint256",
					"name": "",
					"type": "uint256"
				}
			],
			"stateMutability": "view",
			"type": "function"
		},
		{
			"inputs": [
				{
					"internalType": "address",
					"name": "user",
					"type": "address"
				}
			],
			"name": "checkLiquitable",
			"outputs": [
				{
					"internalType": "bool",
					"name": "",
					"type": "bool"
				}
			],
			"stateMutability": "view",
			"type": "function"
		},
		{
			"inputs": [
				{
					"internalType": "address",
					"name": "user",
					"type": "address"
				}
			],
			"name": "checkPayment",
			"outputs": [
				{
					"internalType": "uint256",
					"name": "",
					"type": "uint256"
				},
				{
					"internalType": "uint256",
					"name": "",
					"type": "uint256"
				}
			],
			"stateMutability": "view",
			"type": "function"
		},
		{
			"inputs": [
				{
					"internalType": "address",
					"name": "user",
					"type": "address"
				}
			],
			"name": "checkRepay",
			"outputs": [
				{
					"internalType": "int256",
					"name": "",
					"type": "int256"
				},
				{
					"internalType": "int256",
					"name": "",
					"type": "int256"
				}
			],
			"stateMutability": "view",
			"type": "function"
		},
		{
			"inputs": [],
			"name": "getCollateralBalance",
			"outputs": [
				{
					"internalType": "uint256",
					"name": "",
					"type": "uint256"
				}
			],
			"stateMutability": "view",
			"type": "function"
		},
		{
			"inputs": [
				{
					"internalType": "bytes",
					"name": "response",
					"type": "bytes"
				}
			],
			"name": "getLoan",
			"outputs": [],
			"stateMutability": "nonpayable",
			"type": "function"
		},
		{
			"inputs": [
				{
					"internalType": "address",
					"name": "user",
					"type": "address"
				}
			],
			"name": "liquidateEvent",
			"outputs": [],
			"stateMutability": "nonpayable",
			"type": "function"
		},
		{
			"inputs": [
				{
					"internalType": "address",
					"name": "user",
					"type": "address"
				},
				{
					"internalType": "uint256",
					"name": "day",
					"type": "uint256"
				}
			],
			"name": "overduePaymentEvent",
			"outputs": [],
			"stateMutability": "nonpayable",
			"type": "function"
		},
		{
			"inputs": [
				{
					"internalType": "address",
					"name": "user",
					"type": "address"
				}
			],
			"name": "repayDueDay",
			"outputs": [],
			"stateMutability": "nonpayable",
			"type": "function"
		},
		{
			"inputs": [],
			"name": "repayFull",
			"outputs": [],
			"stateMutability": "payable",
			"type": "function"
		},
		{
			"inputs": [],
			"name": "repayInterestRate",
			"outputs": [],
			"stateMutability": "payable",
			"type": "function"
		},
		{
			"inputs": [
				{
					"internalType": "address",
					"name": "",
					"type": "address"
				}
			],
			"name": "specificComets",
			"outputs": [
				{
					"internalType": "contract CometHelper",
					"name": "",
					"type": "address"
				}
			],
			"stateMutability": "view",
			"type": "function"
		},
		{
			"inputs": [],
			"name": "token",
			"outputs": [
				{
					"internalType": "contract ERC20",
					"name": "",
					"type": "address"
				}
			],
			"stateMutability": "view",
			"type": "function"
		},
		{
			"inputs": [],
			"name": "totalOwed",
			"outputs": [
				{
					"internalType": "int256",
					"name": "",
					"type": "int256"
				}
			],
			"stateMutability": "view",
			"type": "function"
		}
	],
	"bytecode": "0x6080604052733587b2f7e0e2d6166d6c14230e7fe160252b0ba46000806101000a81548173ffffffffffffffffffffffffffffffffffffffff021916908373ffffffffffffffffffffffffffffffffffffffff1602179055507307865c6e87b9f70255377e024ace6630c1eaa37f600160006101000a81548173ffffffffffffffffffffffffffffffffffffffff021916908373ffffffffffffffffffffffffffffffffffffffff16021790555060008054906101000a900473ffffffffffffffffffffffffffffffffffffffff16600460006101000a81548173ffffffffffffffffffffffffffffffffffffffff021916908373ffffffffffffffffffffffffffffffffffffffff160217905550600160009054906101000a900473ffffffffffffffffffffffffffffffffffffffff16600560006101000a81548173ffffffffffffffffffffffffffffffffffffffff021916908373ffffffffffffffffffffffffffffffffffffffff1602179055503480156200017e57600080fd5b506040516200534f3803806200534f8339818101604052810190620001a4919062000297565b80600760006101000a81548173ffffffffffffffffffffffffffffffffffffffff021916908373ffffffffffffffffffffffffffffffffffffffff16021790555033600660006101000a81548173ffffffffffffffffffffffffffffffffffffffff021916908373ffffffffffffffffffffffffffffffffffffffff16021790555050620002c9565b600080fd5b600073ffffffffffffffffffffffffffffffffffffffff82169050919050565b60006200025f8262000232565b9050919050565b620002718162000252565b81146200027d57600080fd5b50565b600081519050620002918162000266565b92915050565b600060208284031215620002b057620002af6200022d565b5b6000620002c08482850162000280565b91505092915050565b61507680620002d96000396000f3fe6080604052600436106200012d5760003560e01c806369f8e99211620000af578063e3102376116200006d578063e310237614620003c0578063e452b6531462000404578063e7fa9f7d1462000434578063f06ac3c11462000464578063fc0c546a1462000494576200012d565b806369f8e99214620002d45780638d56d6731462000304578063b4a99a4e1462000332578063c55dae631462000362578063dc1b6af71462000392576200012d565b80632750f57d11620000fd5780632750f57d14620001e157806329d93d6714620002255780632db6111714620002315780633b56fdc6146200026157806351d6877514620002a6576200012d565b8062420411146200013257806308e4bcb2146200013e578063128118ac146200016c5780631529a63914620001b1575b600080fd5b6200013c620004c4565b005b3480156200014b57600080fd5b506200016a600480360381019062000164919062002467565b62000a1e565b005b3480156200017957600080fd5b5062000198600480360381019062000192919062002467565b62000b60565b604051620001a8929190620024b4565b60405180910390f35b348015620001be57600080fd5b50620001c962000c7a565b604051620001d89190620024fc565b60405180910390f35b348015620001ee57600080fd5b506200020d600480360381019062000207919062002467565b62000d22565b6040516200021c919062002536565b60405180910390f35b6200022f62000e01565b005b3480156200023e57600080fd5b506200024962001530565b60405162000258919062002564565b60405180910390f35b3480156200026e57600080fd5b506200028d600480360381019062000287919062002467565b62001556565b6040516200029d92919062002581565b60405180910390f35b348015620002b357600080fd5b50620002d26004803603810190620002cc9190620025df565b6200163a565b005b348015620002e157600080fd5b50620002ec62001739565b604051620002fb919062002564565b60405180910390f35b3480156200031157600080fd5b506200033060048036038101906200032a919062002467565b6200175d565b005b3480156200033f57600080fd5b506200034a620018b1565b60405162000359919062002564565b60405180910390f35b3480156200036f57600080fd5b506200037a620018d7565b60405162000389919062002691565b60405180910390f35b3480156200039f57600080fd5b50620003be6004803603810190620003b8919062002810565b620018fd565b005b348015620003cd57600080fd5b50620003ec6004803603810190620003e6919062002467565b62001f6d565b604051620003fb919062002886565b60405180910390f35b3480156200041157600080fd5b506200041c62001fa0565b6040516200042b919062002564565b60405180910390f35b3480156200044157600080fd5b506200044c62001fc6565b6040516200045b9190620028a3565b60405180910390f35b3480156200047157600080fd5b506200047c62002143565b6040516200048b9190620024fc565b60405180910390f35b348015620004a157600080fd5b50620004ac62002150565b604051620004bb919062002691565b60405180910390f35b600073ffffffffffffffffffffffffffffffffffffffff16600260003373ffffffffffffffffffffffffffffffffffffffff1673ffffffffffffffffffffffffffffffffffffffff16815260200190815260200160002060009054906101000a900473ffffffffffffffffffffffffffffffffffffffff1673ffffffffffffffffffffffffffffffffffffffff16036200055d57600080fd5b60006200056a3362000b60565b915050600560009054906101000a900473ffffffffffffffffffffffffffffffffffffffff1673ffffffffffffffffffffffffffffffffffffffff166323b872dd3330846040518463ffffffff1660e01b8152600401620005ce93929190620028c0565b6020604051808303816000875af1158015620005ee573d6000803e3d6000fd5b505050506040513d601f19601f820116820180604052508101906200061491906200292e565b6200061e57600080fd5b600560009054906101000a900473ffffffffffffffffffffffffffffffffffffffff1673ffffffffffffffffffffffffffffffffffffffff1663095ea7b3600260003373ffffffffffffffffffffffffffffffffffffffff1673ffffffffffffffffffffffffffffffffffffffff16815260200190815260200160002060009054906101000a900473ffffffffffffffffffffffffffffffffffffffff16600284620006cb9190620029be565b6040518363ffffffff1660e01b8152600401620006ea929190620029f6565b6020604051808303816000875af11580156200070a573d6000803e3d6000fd5b505050506040513d601f19601f820116820180604052508101906200073091906200292e565b50600560009054906101000a900473ffffffffffffffffffffffffffffffffffffffff1673ffffffffffffffffffffffffffffffffffffffff166323b872dd30600260003373ffffffffffffffffffffffffffffffffffffffff1673ffffffffffffffffffffffffffffffffffffffff16815260200190815260200160002060009054906101000a900473ffffffffffffffffffffffffffffffffffffffff16600285620007df9190620029be565b6040518463ffffffff1660e01b8152600401620007ff93929190620028c0565b6020604051808303816000875af11580156200081f573d6000803e3d6000fd5b505050506040513d601f19601f820116820180604052508101906200084591906200292e565b50600260003373ffffffffffffffffffffffffffffffffffffffff1673ffffffffffffffffffffffffffffffffffffffff16815260200190815260200160002060009054906101000a900473ffffffffffffffffffffffffffffffffffffffff1673ffffffffffffffffffffffffffffffffffffffff1663f2b9fdb8600160009054906101000a900473ffffffffffffffffffffffffffffffffffffffff16600284620008f39190620029be565b6040518363ffffffff1660e01b815260040162000912929190620029f6565b600060405180830381600087803b1580156200092d57600080fd5b505af115801562000942573d6000803e3d6000fd5b505050506000600260003373ffffffffffffffffffffffffffffffffffffffff1673ffffffffffffffffffffffffffffffffffffffff16815260200190815260200160002060009054906101000a900473ffffffffffffffffffffffffffffffffffffffff1690508073ffffffffffffffffffffffffffffffffffffffff166352bed52d60006040518263ffffffff1660e01b8152600401620009e6919062002a66565b600060405180830381600087803b15801562000a0157600080fd5b505af115801562000a16573d6000803e3d6000fd5b505050505050565b600660009054906101000a900473ffffffffffffffffffffffffffffffffffffffff1673ffffffffffffffffffffffffffffffffffffffff163373ffffffffffffffffffffffffffffffffffffffff161462000a7957600080fd5b6000600260008373ffffffffffffffffffffffffffffffffffffffff1673ffffffffffffffffffffffffffffffffffffffff16815260200190815260200160002060009054906101000a900473ffffffffffffffffffffffffffffffffffffffff1690508073ffffffffffffffffffffffffffffffffffffffff166352bed52d620151804262000b0a919062002a83565b6040518263ffffffff1660e01b815260040162000b289190620024fc565b600060405180830381600087803b15801562000b4357600080fd5b505af115801562000b58573d6000803e3d6000fd5b505050505050565b6000806000600260008573ffffffffffffffffffffffffffffffffffffffff1673ffffffffffffffffffffffffffffffffffffffff16815260200190815260200160002060009054906101000a900473ffffffffffffffffffffffffffffffffffffffff1690506000808273ffffffffffffffffffffffffffffffffffffffff16636029696460008054906101000a900473ffffffffffffffffffffffffffffffffffffffff166040518263ffffffff1660e01b815260040162000c25919062002564565b6040805180830381865afa15801562000c42573d6000803e3d6000fd5b505050506040513d601f19601f8201168201806040525081019062000c68919062002aef565b91509150818194509450505050915091565b6000600460009054906101000a900473ffffffffffffffffffffffffffffffffffffffff1673ffffffffffffffffffffffffffffffffffffffff166370a08231306040518263ffffffff1660e01b815260040162000cd9919062002564565b602060405180830381865afa15801562000cf7573d6000803e3d6000fd5b505050506040513d601f19601f8201168201806040525081019062000d1d919062002b4d565b905090565b600080600260008473ffffffffffffffffffffffffffffffffffffffff1673ffffffffffffffffffffffffffffffffffffffff16815260200190815260200160002060009054906101000a900473ffffffffffffffffffffffffffffffffffffffff1690508073ffffffffffffffffffffffffffffffffffffffff166388fd2a0f6040518163ffffffff1660e01b8152600401602060405180830381865afa15801562000dd3573d6000803e3d6000fd5b505050506040513d601f19601f8201168201806040525081019062000df991906200292e565b915050919050565b600073ffffffffffffffffffffffffffffffffffffffff16600260003373ffffffffffffffffffffffffffffffffffffffff1673ffffffffffffffffffffffffffffffffffffffff16815260200190815260200160002060009054906101000a900473ffffffffffffffffffffffffffffffffffffffff1673ffffffffffffffffffffffffffffffffffffffff160362000e9a57600080fd5b6000600260003373ffffffffffffffffffffffffffffffffffffffff1673ffffffffffffffffffffffffffffffffffffffff16815260200190815260200160002060009054906101000a900473ffffffffffffffffffffffffffffffffffffffff16905060008173ffffffffffffffffffffffffffffffffffffffff1663c87d67796040518163ffffffff1660e01b8152600401602060405180830381865afa15801562000f4c573d6000803e3d6000fd5b505050506040513d601f19601f8201168201806040525081019062000f72919062002b7f565b9050600560009054906101000a900473ffffffffffffffffffffffffffffffffffffffff1673ffffffffffffffffffffffffffffffffffffffff166323b872dd3330846040518463ffffffff1660e01b815260040162000fd593929190620028c0565b6020604051808303816000875af115801562000ff5573d6000803e3d6000fd5b505050506040513d601f19601f820116820180604052508101906200101b91906200292e565b6200102557600080fd5b600560009054906101000a900473ffffffffffffffffffffffffffffffffffffffff1673ffffffffffffffffffffffffffffffffffffffff1663095ea7b3600260003373ffffffffffffffffffffffffffffffffffffffff1673ffffffffffffffffffffffffffffffffffffffff16815260200190815260200160002060009054906101000a900473ffffffffffffffffffffffffffffffffffffffff16600284620010d29190620029be565b6040518363ffffffff1660e01b8152600401620010f1929190620029f6565b6020604051808303816000875af115801562001111573d6000803e3d6000fd5b505050506040513d601f19601f820116820180604052508101906200113791906200292e565b50600560009054906101000a900473ffffffffffffffffffffffffffffffffffffffff1673ffffffffffffffffffffffffffffffffffffffff166323b872dd308460028562001187919062002bb1565b6040518463ffffffff1660e01b8152600401620011a793929190620028c0565b6020604051808303816000875af1158015620011c7573d6000803e3d6000fd5b505050506040513d601f19601f82011682018060405250810190620011ed91906200292e565b508173ffffffffffffffffffffffffffffffffffffffff1663efe72a91600160009054906101000a900473ffffffffffffffffffffffffffffffffffffffff1660008054906101000a900473ffffffffffffffffffffffffffffffffffffffff166040518363ffffffff1660e01b81526004016200126d92919062002c25565b600060405180830381600087803b1580156200128857600080fd5b505af11580156200129d573d6000803e3d6000fd5b505050508173ffffffffffffffffffffffffffffffffffffffff166352bed52d60006040518263ffffffff1660e01b8152600401620012dd919062002a66565b600060405180830381600087803b158015620012f857600080fd5b505af11580156200130d573d6000803e3d6000fd5b50505050600080600090505b600380549050811015620013bb573373ffffffffffffffffffffffffffffffffffffffff166003828154811062001355576200135462002c52565b5b9060005260206000200160009054906101000a900473ffffffffffffffffffffffffffffffffffffffff1673ffffffffffffffffffffffffffffffffffffffff1603620013a557809150620013bb565b8080620013b29062002c81565b91505062001319565b50600380549050811015620014c95760036001600380549050620013e0919062002cce565b81548110620013f457620013f362002c52565b5b9060005260206000200160009054906101000a900473ffffffffffffffffffffffffffffffffffffffff166003828154811062001436576200143562002c52565b5b9060005260206000200160006101000a81548173ffffffffffffffffffffffffffffffffffffffff021916908373ffffffffffffffffffffffffffffffffffffffff160217905550600380548062001493576200149262002d09565b5b6001900381819060005260206000200160006101000a81549073ffffffffffffffffffffffffffffffffffffffff021916905590555b600260003373ffffffffffffffffffffffffffffffffffffffff1673ffffffffffffffffffffffffffffffffffffffff16815260200190815260200160002060006101000a81549073ffffffffffffffffffffffffffffffffffffffff0219169055505050565b600760009054906101000a900473ffffffffffffffffffffffffffffffffffffffff1681565b6000806000600260008573ffffffffffffffffffffffffffffffffffffffff1673ffffffffffffffffffffffffffffffffffffffff16815260200190815260200160002060009054906101000a900473ffffffffffffffffffffffffffffffffffffffff169050428173ffffffffffffffffffffffffffffffffffffffff1663b6768cd16040518163ffffffff1660e01b8152600401602060405180830381865afa1580156200160a573d6000803e3d6000fd5b505050506040513d601f19601f8201168201806040525081019062001630919062002b4d565b9250925050915091565b600660009054906101000a900473ffffffffffffffffffffffffffffffffffffffff1673ffffffffffffffffffffffffffffffffffffffff163373ffffffffffffffffffffffffffffffffffffffff16146200169557600080fd5b6000600260008473ffffffffffffffffffffffffffffffffffffffff1673ffffffffffffffffffffffffffffffffffffffff16815260200190815260200160002060009054906101000a900473ffffffffffffffffffffffffffffffffffffffff1690507fac004a7bf8972256cac81a7521530f6166784db701e465978de19ab6c54a2e8c83836040516200172c929190620029f6565b60405180910390a1505050565b60008054906101000a900473ffffffffffffffffffffffffffffffffffffffff1681565b600660009054906101000a900473ffffffffffffffffffffffffffffffffffffffff1673ffffffffffffffffffffffffffffffffffffffff163373ffffffffffffffffffffffffffffffffffffffff1614620017b857600080fd5b6000600260008373ffffffffffffffffffffffffffffffffffffffff1673ffffffffffffffffffffffffffffffffffffffff16815260200190815260200160002060009054906101000a900473ffffffffffffffffffffffffffffffffffffffff1690508073ffffffffffffffffffffffffffffffffffffffff166386b9d81f60008054906101000a900473ffffffffffffffffffffffffffffffffffffffff16306040518363ffffffff1660e01b81526004016200187992919062002c25565b600060405180830381600087803b1580156200189457600080fd5b505af1158015620018a9573d6000803e3d6000fd5b505050505050565b600660009054906101000a900473ffffffffffffffffffffffffffffffffffffffff1681565b600560009054906101000a900473ffffffffffffffffffffffffffffffffffffffff1681565b6000600760009054906101000a900473ffffffffffffffffffffffffffffffffffffffff169050600073ffffffffffffffffffffffffffffffffffffffff16600260003373ffffffffffffffffffffffffffffffffffffffff1673ffffffffffffffffffffffffffffffffffffffff16815260200190815260200160002060009054906101000a900473ffffffffffffffffffffffffffffffffffffffff1673ffffffffffffffffffffffffffffffffffffffff1614620019bd57600080fd5b60008173ffffffffffffffffffffffffffffffffffffffff1663d44434c9846040518263ffffffff1660e01b8152600401620019fa919062002dc1565b6020604051808303816000875af115801562001a1a573d6000803e3d6000fd5b505050506040513d601f19601f8201168201806040525081019062001a40919062002b4d565b90506000808373ffffffffffffffffffffffffffffffffffffffff1663985e5e27846040518263ffffffff1660e01b815260040162001a809190620024fc565b608060405180830381865afa15801562001a9e573d6000803e3d6000fd5b505050506040513d601f19601f8201168201806040525081019062001ac4919062002e24565b93509350505060003060405162001adb90620023e0565b62001ae7919062002564565b604051809103906000f08015801562001b04573d6000803e3d6000fd5b50905080600260003373ffffffffffffffffffffffffffffffffffffffff1673ffffffffffffffffffffffffffffffffffffffff16815260200190815260200160002060006101000a81548173ffffffffffffffffffffffffffffffffffffffff021916908373ffffffffffffffffffffffffffffffffffffffff1602179055506003339080600181540180825580915050600190039060005260206000200160009091909190916101000a81548173ffffffffffffffffffffffffffffffffffffffff021916908373ffffffffffffffffffffffffffffffffffffffff160217905550600062001bf6848362002176565b905080600460009054906101000a900473ffffffffffffffffffffffffffffffffffffffff1673ffffffffffffffffffffffffffffffffffffffff166370a08231306040518263ffffffff1660e01b815260040162001c56919062002564565b602060405180830381865afa15801562001c74573d6000803e3d6000fd5b505050506040513d601f19601f8201168201806040525081019062001c9a919062002b4d565b101562001cde576040517f08c379a000000000000000000000000000000000000000000000000000000000815260040162001cd59062002f1d565b60405180910390fd5b600460009054906101000a900473ffffffffffffffffffffffffffffffffffffffff1673ffffffffffffffffffffffffffffffffffffffff1663095ea7b383836040518363ffffffff1660e01b815260040162001d3d929190620029f6565b6020604051808303816000875af115801562001d5d573d6000803e3d6000fd5b505050506040513d601f19601f8201168201806040525081019062001d8391906200292e565b50600460009054906101000a900473ffffffffffffffffffffffffffffffffffffffff1673ffffffffffffffffffffffffffffffffffffffff166323b872dd3084846040518463ffffffff1660e01b815260040162001de593929190620028c0565b6020604051808303816000875af115801562001e05573d6000803e3d6000fd5b505050506040513d601f19601f8201168201806040525081019062001e2b91906200292e565b508173ffffffffffffffffffffffffffffffffffffffff1663f2b9fdb860008054906101000a900473ffffffffffffffffffffffffffffffffffffffff16836040518363ffffffff1660e01b815260040162001e89929190620029f6565b600060405180830381600087803b15801562001ea457600080fd5b505af115801562001eb9573d6000803e3d6000fd5b505050508173ffffffffffffffffffffffffffffffffffffffff16638d0767a3600160009054906101000a900473ffffffffffffffffffffffffffffffffffffffff1664e8d4a510008762001f0f9190620029be565b336040518463ffffffff1660e01b815260040162001f309392919062002f3f565b600060405180830381600087803b15801562001f4b57600080fd5b505af115801562001f60573d6000803e3d6000fd5b5050505050505050505050565b60026020528060005260406000206000915054906101000a900473ffffffffffffffffffffffffffffffffffffffff1681565b600160009054906101000a900473ffffffffffffffffffffffffffffffffffffffff1681565b60008073ffffffffffffffffffffffffffffffffffffffff16600260003373ffffffffffffffffffffffffffffffffffffffff1673ffffffffffffffffffffffffffffffffffffffff16815260200190815260200160002060009054906101000a900473ffffffffffffffffffffffffffffffffffffffff1673ffffffffffffffffffffffffffffffffffffffff16036200206057600080fd5b60028060003373ffffffffffffffffffffffffffffffffffffffff1673ffffffffffffffffffffffffffffffffffffffff16815260200190815260200160002060009054906101000a900473ffffffffffffffffffffffffffffffffffffffff1673ffffffffffffffffffffffffffffffffffffffff1663c87d67796040518163ffffffff1660e01b8152600401602060405180830381865afa1580156200210c573d6000803e3d6000fd5b505050506040513d601f19601f8201168201806040525081019062002132919062002b7f565b6200213e919062002f7c565b905090565b6000600380549050905090565b600460009054906101000a900473ffffffffffffffffffffffffffffffffffffffff1681565b6000808273ffffffffffffffffffffffffffffffffffffffff1663b21eb1e660008054906101000a900473ffffffffffffffffffffffffffffffffffffffff166040518263ffffffff1660e01b8152600401620021d4919062002564565b602060405180830381865afa158015620021f2573d6000803e3d6000fd5b505050506040513d601f19601f8201168201806040525081019062002218919062003017565b905060008373ffffffffffffffffffffffffffffffffffffffff1663974c6472836040518263ffffffff1660e01b815260040162002257919062002564565b602060405180830381865afa15801562002275573d6000803e3d6000fd5b505050506040513d601f19601f820116820180604052508101906200229b919062002b4d565b90507f92f1ccf287d86b59026b86f63b6be4b247b77eeee2b4defbd1baf6a5375e932b81604051620022ce9190620024fc565b60405180910390a16000600286620022e7919062003049565b90507fb91425fc89804800950f9c8487c931a7657647b5b6a2197c5b71bc2b6f5bc06f816040516200231a9190620024fc565b60405180910390a160006402540be4008362002337919062003049565b90507f32992f99c559204b1e75389a1a0f63793b5b358bec33772765915ebbd640a329816040516200236a9190620024fc565b60405180910390a16000670de0b6b3a764000082846200238b9190620029be565b62002397919062003049565b90507f47d21512022a9f5df55e0adc4cf3364b38c8fb21ee6255eba3c9baef2beeafa881604051620023ca9190620024fc565b60405180910390a1809550505050505092915050565b611fac806200309583390190565b6000604051905090565b600080fd5b600080fd5b600073ffffffffffffffffffffffffffffffffffffffff82169050919050565b60006200242f8262002402565b9050919050565b620024418162002422565b81146200244d57600080fd5b50565b600081359050620024618162002436565b92915050565b60006020828403121562002480576200247f620023f8565b5b6000620024908482850162002450565b91505092915050565b6000819050919050565b620024ae8162002499565b82525050565b6000604082019050620024cb6000830185620024a3565b620024da6020830184620024a3565b9392505050565b6000819050919050565b620024f681620024e1565b82525050565b6000602082019050620025136000830184620024eb565b92915050565b60008115159050919050565b620025308162002519565b82525050565b60006020820190506200254d600083018462002525565b92915050565b6200255e8162002422565b82525050565b60006020820190506200257b600083018462002553565b92915050565b6000604082019050620025986000830185620024eb565b620025a76020830184620024eb565b9392505050565b620025b981620024e1565b8114620025c557600080fd5b50565b600081359050620025d981620025ae565b92915050565b60008060408385031215620025f957620025f8620023f8565b5b6000620026098582860162002450565b92505060206200261c85828601620025c8565b9150509250929050565b6000819050919050565b6000620026516200264b620026458462002402565b62002626565b62002402565b9050919050565b6000620026658262002630565b9050919050565b6000620026798262002658565b9050919050565b6200268b816200266c565b82525050565b6000602082019050620026a8600083018462002680565b92915050565b600080fd5b600080fd5b6000601f19601f8301169050919050565b7f4e487b7100000000000000000000000000000000000000000000000000000000600052604160045260246000fd5b6200270382620026b8565b810181811067ffffffffffffffff82111715620027255762002724620026c9565b5b80604052505050565b60006200273a620023ee565b9050620027488282620026f8565b919050565b600067ffffffffffffffff8211156200276b576200276a620026c9565b5b6200277682620026b8565b9050602081019050919050565b82818337600083830152505050565b6000620027a9620027a3846200274d565b6200272e565b905082815260208101848484011115620027c857620027c7620026b3565b5b620027d584828562002783565b509392505050565b600082601f830112620027f557620027f4620026ae565b5b81356200280784826020860162002792565b91505092915050565b600060208284031215620028295762002828620023f8565b5b600082013567ffffffffffffffff8111156200284a5762002849620023fd565b5b6200285884828501620027dd565b91505092915050565b60006200286e8262002658565b9050919050565b620028808162002861565b82525050565b60006020820190506200289d600083018462002875565b92915050565b6000602082019050620028ba6000830184620024a3565b92915050565b6000606082019050620028d7600083018662002553565b620028e6602083018562002553565b620028f56040830184620024eb565b949350505050565b620029088162002519565b81146200291457600080fd5b50565b6000815190506200292881620028fd565b92915050565b600060208284031215620029475762002946620023f8565b5b6000620029578482850162002917565b91505092915050565b7f4e487b7100000000000000000000000000000000000000000000000000000000600052601260045260246000fd5b7f4e487b7100000000000000000000000000000000000000000000000000000000600052601160045260246000fd5b6000620029cb82620024e1565b9150620029d883620024e1565b925082620029eb57620029ea62002960565b5b828204905092915050565b600060408201905062002a0d600083018562002553565b62002a1c6020830184620024eb565b9392505050565b6000819050919050565b600062002a4e62002a4862002a428462002a23565b62002626565b620024e1565b9050919050565b62002a608162002a2d565b82525050565b600060208201905062002a7d600083018462002a55565b92915050565b600062002a9082620024e1565b915062002a9d83620024e1565b925082820190508082111562002ab85762002ab76200298f565b5b92915050565b62002ac98162002499565b811462002ad557600080fd5b50565b60008151905062002ae98162002abe565b92915050565b6000806040838503121562002b095762002b08620023f8565b5b600062002b198582860162002ad8565b925050602062002b2c8582860162002ad8565b9150509250929050565b60008151905062002b4781620025ae565b92915050565b60006020828403121562002b665762002b65620023f8565b5b600062002b768482850162002b36565b91505092915050565b60006020828403121562002b985762002b97620023f8565b5b600062002ba88482850162002ad8565b91505092915050565b600062002bbe8262002499565b915062002bcb8362002499565b92508262002bde5762002bdd62002960565b5b600160000383147f80000000000000000000000000000000000000000000000000000000000000008314161562002c1a5762002c196200298f565b5b828205905092915050565b600060408201905062002c3c600083018562002553565b62002c4b602083018462002553565b9392505050565b7f4e487b7100000000000000000000000000000000000000000000000000000000600052603260045260246000fd5b600062002c8e82620024e1565b91507fffffffffffffffffffffffffffffffffffffffffffffffffffffffffffffffff820362002cc35762002cc26200298f565b5b600182019050919050565b600062002cdb82620024e1565b915062002ce883620024e1565b925082820390508181111562002d035762002d026200298f565b5b92915050565b7f4e487b7100000000000000000000000000000000000000000000000000000000600052603160045260246000fd5b600081519050919050565b600082825260208201905092915050565b60005b8381101562002d7457808201518184015260208101905062002d57565b60008484015250505050565b600062002d8d8262002d38565b62002d99818562002d43565b935062002dab81856020860162002d54565b62002db681620026b8565b840191505092915050565b6000602082019050818103600083015262002ddd818462002d80565b905092915050565b600061ffff82169050919050565b62002dfe8162002de5565b811462002e0a57600080fd5b50565b60008151905062002e1e8162002df3565b92915050565b6000806000806080858703121562002e415762002e40620023f8565b5b600062002e518782880162002e0d565b945050602062002e648782880162002b36565b935050604062002e778782880162002b36565b925050606062002e8a8782880162002b36565b91505092959194509250565b600082825260208201905092915050565b7f4e6f7420656e6f7567682066756e647320696e2074686520666163746f72792060008201527f636f6e74726163742e0000000000000000000000000000000000000000000000602082015250565b600062002f0560298362002e96565b915062002f128262002ea7565b604082019050919050565b6000602082019050818103600083015262002f388162002ef6565b9050919050565b600060608201905062002f56600083018662002553565b62002f656020830185620024eb565b62002f74604083018462002553565b949350505050565b600062002f898262002499565b915062002f968362002499565b925082820262002fa68162002499565b91507f8000000000000000000000000000000000000000000000000000000000000000841460008412161562002fe15762002fe06200298f565b5b828205841483151762002ff95762002ff86200298f565b5b5092915050565b600081519050620030118162002436565b92915050565b60006020828403121562003030576200302f620023f8565b5b6000620030408482850162003000565b91505092915050565b60006200305682620024e1565b91506200306383620024e1565b92508282026200307381620024e1565b915082820484148315176200308d576200308c6200298f565b5b509291505056fe608060405260026000806101000a8154816cffffffffffffffffffffffffff0219169083600c0b6cffffffffffffffffffffffffff160217905550733ee77595a8459e93c2888b13adb354017b198188600160006101000a81548173ffffffffffffffffffffffffffffffffffffffff021916908373ffffffffffffffffffffffffffffffffffffffff1602179055503480156200009c57600080fd5b5060405162001fac38038062001fac8339818101604052810190620000c29190620002b2565b600160009054906101000a900473ffffffffffffffffffffffffffffffffffffffff1673ffffffffffffffffffffffffffffffffffffffff166344c1e5eb6040518163ffffffff1660e01b8152600401602060405180830381865afa15801562000130573d6000803e3d6000fd5b505050506040513d601f19601f820116820180604052508101906200015691906200031f565b600281905550600160009054906101000a900473ffffffffffffffffffffffffffffffffffffffff1673ffffffffffffffffffffffffffffffffffffffff166396e7a9c16040518163ffffffff1660e01b8152600401602060405180830381865afa158015620001ca573d6000803e3d6000fd5b505050506040513d601f19601f82011682018060405250810190620001f0919062000396565b67ffffffffffffffff1660038190555080600460006101000a81548173ffffffffffffffffffffffffffffffffffffffff021916908373ffffffffffffffffffffffffffffffffffffffff16021790555050620003c8565b600080fd5b600073ffffffffffffffffffffffffffffffffffffffff82169050919050565b60006200027a826200024d565b9050919050565b6200028c816200026d565b81146200029857600080fd5b50565b600081519050620002ac8162000281565b92915050565b600060208284031215620002cb57620002ca62000248565b5b6000620002db848285016200029b565b91505092915050565b6000819050919050565b620002f981620002e4565b81146200030557600080fd5b50565b6000815190506200031981620002ee565b92915050565b60006020828403121562000338576200033762000248565b5b6000620003488482850162000308565b91505092915050565b600067ffffffffffffffff82169050919050565b620003708162000351565b81146200037c57600080fd5b50565b600081519050620003908162000365565b92915050565b600060208284031215620003af57620003ae62000248565b5b6000620003bf848285016200037f565b91505092915050565b611bd480620003d86000396000f3fe608060405234801561001057600080fd5b506004361061012c5760003560e01c8063b21eb1e6116100ad578063e5b5019a11610071578063e5b5019a14610324578063e6a69ab814610342578063efe72a9114610360578063f2b9fdb81461037c578063f3fef3a3146103985761012c565b8063b21eb1e61461027c578063b6768cd1146102ac578063c4311604146102ca578063c6846ef8146102e8578063c87d6779146103065761012c565b806386b9d81f116100f457806386b9d81f146101d857806388fd2a0f146101f45780638d0767a314610212578063974c64721461022e578063ae242cdf1461025e5761012c565b80634d74a6f01461013157806352bed52d1461014f578063602969641461016b5780636bbb194b1461019c57806374f0314f146101ba575b600080fd5b6101396103b4565b6040516101469190611170565b60405180910390f35b610169600480360381019061016491906111c6565b6103ba565b005b61018560048036038101906101809190611251565b610454565b604051610193929190611297565b60405180910390f35b6101a461058c565b6040516101b191906112cf565b60405180910390f35b6101c26105b2565b6040516101cf9190611170565b60405180910390f35b6101f260048036038101906101ed91906112ea565b6105b9565b005b6101fc610678565b6040516102099190611345565b60405180910390f35b61022c60048036038101906102279190611360565b61071b565b005b61024860048036038101906102439190611251565b610839565b6040516102559190611170565b60405180910390f35b6102666108f5565b60405161027391906112cf565b60405180910390f35b61029660048036038101906102919190611251565b61091b565b6040516102a391906112cf565b60405180910390f35b6102b46109ca565b6040516102c19190611170565b60405180910390f35b6102d26109d0565b6040516102df9190611170565b60405180910390f35b6102f06109d6565b6040516102fd9190611170565b60405180910390f35b61030e6109dc565b60405161031b91906113b3565b60405180910390f35b61032c610ae6565b6040516103399190611170565b60405180910390f35b61034a610b0a565b6040516103579190611170565b60405180910390f35b61037a600480360381019061037591906112ea565b610b1e565b005b610396600480360381019061039191906113ce565b610e70565b005b6103b260048036038101906103ad91906113ce565b611034565b005b60035481565b600460009054906101000a900473ffffffffffffffffffffffffffffffffffffffff1673ffffffffffffffffffffffffffffffffffffffff163373ffffffffffffffffffffffffffffffffffffffff161461044a576040517f08c379a00000000000000000000000000000000000000000000000000000000081526004016104419061146b565b60405180910390fd5b8060058190555050565b6000806000600160009054906101000a900473ffffffffffffffffffffffffffffffffffffffff16905060008173ffffffffffffffffffffffffffffffffffffffff16632b92a07d30876040518363ffffffff1660e01b81526004016104bb92919061148b565b6040805180830381865afa1580156104d7573d6000803e3d6000fd5b505050506040513d601f19601f820116820180604052508101906104fb91906115dd565b600001516fffffffffffffffffffffffffffffffff169050600061051d6109dc565b826105289190611668565b9050600080609690508083121561057c576000600a826105466109dc565b61055091906116d2565b61055a9190611714565b90506000858261056a9190611745565b90506000811315610579578093505b50505b8282965096505050505050915091565b600160009054906101000a900473ffffffffffffffffffffffffffffffffffffffff1681565b6201518081565b600460009054906101000a900473ffffffffffffffffffffffffffffffffffffffff1673ffffffffffffffffffffffffffffffffffffffff163373ffffffffffffffffffffffffffffffffffffffff1614610649576040517f08c379a00000000000000000000000000000000000000000000000000000000081526004016106409061146b565b60405180910390fd5b610674827fffffffffffffffffffffffffffffffffffffffffffffffffffffffffffffffff8361071b565b5050565b6000600160009054906101000a900473ffffffffffffffffffffffffffffffffffffffff1673ffffffffffffffffffffffffffffffffffffffff1663042e02cf306040518263ffffffff1660e01b81526004016106d591906112cf565b602060405180830381865afa1580156106f2573d6000803e3d6000fd5b505050506040513d601f19601f8201168201806040525081019061071691906117b4565b905090565b600460009054906101000a900473ffffffffffffffffffffffffffffffffffffffff1673ffffffffffffffffffffffffffffffffffffffff163373ffffffffffffffffffffffffffffffffffffffff16146107ab576040517f08c379a00000000000000000000000000000000000000000000000000000000081526004016107a29061146b565b60405180910390fd5b6107b58383611034565b8273ffffffffffffffffffffffffffffffffffffffff1663a9059cbb82846040518363ffffffff1660e01b81526004016107f09291906117e1565b6020604051808303816000875af115801561080f573d6000803e3d6000fd5b505050506040513d601f19601f8201168201806040525081019061083391906117b4565b50505050565b600080600160009054906101000a900473ffffffffffffffffffffffffffffffffffffffff1690508073ffffffffffffffffffffffffffffffffffffffff166341976e09846040518263ffffffff1660e01b815260040161089a91906112cf565b602060405180830381865afa1580156108b7573d6000803e3d6000fd5b505050506040513d601f19601f820116820180604052508101906108db919061180a565b6fffffffffffffffffffffffffffffffff16915050919050565b600460009054906101000a900473ffffffffffffffffffffffffffffffffffffffff1681565b600080600160009054906101000a900473ffffffffffffffffffffffffffffffffffffffff1690508073ffffffffffffffffffffffffffffffffffffffff16633b3bec2e846040518263ffffffff1660e01b815260040161097c91906112cf565b61010060405180830381865afa15801561099a573d6000803e3d6000fd5b505050506040513d601f19601f820116820180604052508101906109be919061198f565b60400151915050919050565b60055481565b60025481565b61016d81565b600080600160009054906101000a900473ffffffffffffffffffffffffffffffffffffffff1673ffffffffffffffffffffffffffffffffffffffff1663dc4abafd306040518263ffffffff1660e01b8152600401610a3a91906112cf565b60a060405180830381865afa158015610a57573d6000803e3d6000fd5b505050506040513d601f19601f82011682018060405250810190610a7b9190611abc565b6000015190506000633b9aca00827fffffffffffffffffffffffffffffffffffffffffffffffffffffffffffffffff610ab49190611ae9565b610abe9190611ae9565b600c0b905060008054906101000a9004600c0b600c0b81610adf9190611b26565b9250505090565b7fffffffffffffffffffffffffffffffffffffffffffffffffffffffffffffffff81565b61016d62015180610b1b91906116d2565b81565b600460009054906101000a900473ffffffffffffffffffffffffffffffffffffffff1673ffffffffffffffffffffffffffffffffffffffff163373ffffffffffffffffffffffffffffffffffffffff1614610bae576040517f08c379a0000000000000000000000000000000000000000000000000000000008152600401610ba59061146b565b60405180910390fd5b8173ffffffffffffffffffffffffffffffffffffffff1663095ea7b3600160009054906101000a900473ffffffffffffffffffffffffffffffffffffffff167fffffffffffffffffffffffffffffffffffffffffffffffffffffffffffffffff6040518363ffffffff1660e01b8152600401610c2b9291906117e1565b6020604051808303816000875af1158015610c4a573d6000803e3d6000fd5b505050506040513d601f19601f82011682018060405250810190610c6e91906117b4565b50600160009054906101000a900473ffffffffffffffffffffffffffffffffffffffff1673ffffffffffffffffffffffffffffffffffffffff1663f2b9fdb8837fffffffffffffffffffffffffffffffffffffffffffffffffffffffffffffffff6040518363ffffffff1660e01b8152600401610cec9291906117e1565b600060405180830381600087803b158015610d0657600080fd5b505af1158015610d1a573d6000803e3d6000fd5b50505050600160009054906101000a900473ffffffffffffffffffffffffffffffffffffffff1673ffffffffffffffffffffffffffffffffffffffff1663f3fef3a3827fffffffffffffffffffffffffffffffffffffffffffffffffffffffffffffffff6040518363ffffffff1660e01b8152600401610d9b9291906117e1565b600060405180830381600087803b158015610db557600080fd5b505af1158015610dc9573d6000803e3d6000fd5b505050508073ffffffffffffffffffffffffffffffffffffffff1663a9059cbb337fffffffffffffffffffffffffffffffffffffffffffffffffffffffffffffffff6040518363ffffffff1660e01b8152600401610e289291906117e1565b6020604051808303816000875af1158015610e47573d6000803e3d6000fd5b505050506040513d601f19601f82011682018060405250810190610e6b91906117b4565b505050565b600460009054906101000a900473ffffffffffffffffffffffffffffffffffffffff1673ffffffffffffffffffffffffffffffffffffffff163373ffffffffffffffffffffffffffffffffffffffff1614610f00576040517f08c379a0000000000000000000000000000000000000000000000000000000008152600401610ef79061146b565b60405180910390fd5b8173ffffffffffffffffffffffffffffffffffffffff1663095ea7b3600160009054906101000a900473ffffffffffffffffffffffffffffffffffffffff16836040518363ffffffff1660e01b8152600401610f5d9291906117e1565b6020604051808303816000875af1158015610f7c573d6000803e3d6000fd5b505050506040513d601f19601f82011682018060405250810190610fa091906117b4565b50600160009054906101000a900473ffffffffffffffffffffffffffffffffffffffff1673ffffffffffffffffffffffffffffffffffffffff1663f2b9fdb883836040518363ffffffff1660e01b8152600401610ffe9291906117e1565b600060405180830381600087803b15801561101857600080fd5b505af115801561102c573d6000803e3d6000fd5b505050505050565b600460009054906101000a900473ffffffffffffffffffffffffffffffffffffffff1673ffffffffffffffffffffffffffffffffffffffff163373ffffffffffffffffffffffffffffffffffffffff16146110c4576040517f08c379a00000000000000000000000000000000000000000000000000000000081526004016110bb9061146b565b60405180910390fd5b600160009054906101000a900473ffffffffffffffffffffffffffffffffffffffff1673ffffffffffffffffffffffffffffffffffffffff1663f3fef3a383836040518363ffffffff1660e01b81526004016111219291906117e1565b600060405180830381600087803b15801561113b57600080fd5b505af115801561114f573d6000803e3d6000fd5b505050505050565b6000819050919050565b61116a81611157565b82525050565b60006020820190506111856000830184611161565b92915050565b6000604051905090565b600080fd5b6111a381611157565b81146111ae57600080fd5b50565b6000813590506111c08161119a565b92915050565b6000602082840312156111dc576111db611195565b5b60006111ea848285016111b1565b91505092915050565b600073ffffffffffffffffffffffffffffffffffffffff82169050919050565b600061121e826111f3565b9050919050565b61122e81611213565b811461123957600080fd5b50565b60008135905061124b81611225565b92915050565b60006020828403121561126757611266611195565b5b60006112758482850161123c565b91505092915050565b6000819050919050565b6112918161127e565b82525050565b60006040820190506112ac6000830185611288565b6112b96020830184611288565b9392505050565b6112c981611213565b82525050565b60006020820190506112e460008301846112c0565b92915050565b6000806040838503121561130157611300611195565b5b600061130f8582860161123c565b92505060206113208582860161123c565b9150509250929050565b60008115159050919050565b61133f8161132a565b82525050565b600060208201905061135a6000830184611336565b92915050565b60008060006060848603121561137957611378611195565b5b60006113878682870161123c565b9350506020611398868287016111b1565b92505060406113a98682870161123c565b9150509250925092565b60006020820190506113c86000830184611288565b92915050565b600080604083850312156113e5576113e4611195565b5b60006113f38582860161123c565b9250506020611404858286016111b1565b9150509250929050565b600082825260208201905092915050565b7f4e6f7420617574686f72697a6564000000000000000000000000000000000000600082015250565b6000611455600e8361140e565b91506114608261141f565b602082019050919050565b6000602082019050818103600083015261148481611448565b9050919050565b60006040820190506114a060008301856112c0565b6114ad60208301846112c0565b9392505050565b600080fd5b6000601f19601f8301169050919050565b7f4e487b7100000000000000000000000000000000000000000000000000000000600052604160045260246000fd5b611502826114b9565b810181811067ffffffffffffffff82111715611521576115206114ca565b5b80604052505050565b600061153461118b565b905061154082826114f9565b919050565b60006fffffffffffffffffffffffffffffffff82169050919050565b61156a81611545565b811461157557600080fd5b50565b60008151905061158781611561565b92915050565b6000604082840312156115a3576115a26114b4565b5b6115ad604061152a565b905060006115bd84828501611578565b60008301525060206115d184828501611578565b60208301525092915050565b6000604082840312156115f3576115f2611195565b5b60006116018482850161158d565b91505092915050565b7f4e487b7100000000000000000000000000000000000000000000000000000000600052601260045260246000fd5b7f4e487b7100000000000000000000000000000000000000000000000000000000600052601160045260246000fd5b60006116738261127e565b915061167e8361127e565b92508261168e5761168d61160a565b5b600160000383147f8000000000000000000000000000000000000000000000000000000000000000831416156116c7576116c6611639565b5b828205905092915050565b60006116dd82611157565b91506116e883611157565b92508282026116f681611157565b9150828204841483151761170d5761170c611639565b5b5092915050565b600061171f82611157565b915061172a83611157565b92508261173a5761173961160a565b5b828204905092915050565b60006117508261127e565b915061175b8361127e565b925082820390508181126000841216828213600085121516171561178257611781611639565b5b92915050565b6117918161132a565b811461179c57600080fd5b50565b6000815190506117ae81611788565b92915050565b6000602082840312156117ca576117c9611195565b5b60006117d88482850161179f565b91505092915050565b60006040820190506117f660008301856112c0565b6118036020830184611161565b9392505050565b6000602082840312156118205761181f611195565b5b600061182e84828501611578565b91505092915050565b600060ff82169050919050565b61184d81611837565b811461185857600080fd5b50565b60008151905061186a81611844565b92915050565b60008151905061187f81611225565b92915050565b600067ffffffffffffffff82169050919050565b6118a281611885565b81146118ad57600080fd5b50565b6000815190506118bf81611899565b92915050565b600061010082840312156118dc576118db6114b4565b5b6118e761010061152a565b905060006118f78482850161185b565b600083015250602061190b84828501611870565b602083015250604061191f84828501611870565b6040830152506060611933848285016118b0565b6060830152506080611947848285016118b0565b60808301525060a061195b848285016118b0565b60a08301525060c061196f848285016118b0565b60c08301525060e061198384828501611578565b60e08301525092915050565b600061010082840312156119a6576119a5611195565b5b60006119b4848285016118c5565b91505092915050565b600081600c0b9050919050565b6119d3816119bd565b81146119de57600080fd5b50565b6000815190506119f0816119ca565b92915050565b600061ffff82169050919050565b611a0d816119f6565b8114611a1857600080fd5b50565b600081519050611a2a81611a04565b92915050565b600060a08284031215611a4657611a456114b4565b5b611a5060a061152a565b90506000611a60848285016119e1565b6000830152506020611a74848285016118b0565b6020830152506040611a88848285016118b0565b6040830152506060611a9c84828501611a1b565b6060830152506080611ab08482850161185b565b60808301525092915050565b600060a08284031215611ad257611ad1611195565b5b6000611ae084828501611a30565b91505092915050565b6000611af4826119bd565b9150611aff836119bd565b9250828202611b0d816119bd565b9150808214611b1f57611b1e611639565b5b5092915050565b6000611b318261127e565b9150611b3c8361127e565b9250828202611b4a8161127e565b91507f80000000000000000000000000000000000000000000000000000000000000008414600084121615611b8257611b81611639565b5b8282058414831517611b9757611b96611639565b5b509291505056fea264697066735822122073b77c91dafa8537801abef570ed2f9e3b12df618faf2451fc5df38172f454d664736f6c63430008110033a26469706673582212209999d40339834d9d6fb6d847615d2aab03f0a5457b634da5e70e01341546d58464736f6c63430008110033",
	"linkReferences": {},
	"deployedLinkReferences": {}
}